:100000000C9476000C949E000C949E000C949E0020
:100010000C949E000C949E000C949E000C949E00E8
:100020000C949E000C949E000C949E000C949E00D8
:100030000C949E000C949E000C949E000C949E00C8
:100040000C94EC040C949E000C94EB030C94C503EC
:100050000C949E000C949E000C949E000C949E00A8
:100060000C949E000C949E000000000024002700C9
:100070002A000000000023002600290004040404D4
:100080000404040402020202020203030303030342
:10009000010204081020408001020408102001021F
:1000A00004081020000000080002010000030407FB
:1000B0000000000000000000596F75722074616735
:1000C000206973206E6F74206F66207479706520CC
:1000D0004D494641524520436C61737369632E005C
:1000E00000000000250028002B00DE0711241FBEA1
:1000F000CFEFD8E0DEBFCDBF22E0A0E9B1E001C084
:100100001D92AB34B207E1F711E0A0E0B1E0EAE301
:10011000FAE102C005900D92A039B107D9F710E0BD
:10012000C6E7D0E004C02197FE010E94F80AC53757
:10013000D107C9F70E9415080C941B0D0C94000000
:10014000CF92DF92EF92FF920F931F93CF93DF93A3
:100150006C017A018B01C0E0D0E0CE15DF0589F09B
:10016000D8016D918D01D601ED91FC910190F08146
:10017000E02DC6010995892B11F47E0102C021965C
:10018000ECCFC701DF91CF911F910F91FF90EF90BE
:10019000DF90CF900895009769F0FC010190002056
:1001A000E9F73197AF01481B590BBC0180E991E099
:1001B0000C94A00080E090E008950E94F50C0F934D
:1001C0001F93CF93DF93EC0188819981009729F0E9
:1001D0002A813B812617370788F48B016F5F7F4F99
:1001E0000E942B0C009761F0998388831B830A83FC
:1001F0002C813D81232B11F4FC01108281E001C090
:1002000080E0DF91CF911F910F910895EF92FF92BF
:100210000F931F93CF93DF93FC01248135816115E8
:10022000710511F480E019C041155105A9F07B0159
:10023000EC018A01020F131FB8010E94DF0088231E
:1002400089F3288139818C819D81B701820F931FA9
:100250000E94140D1D830C8381E0DF91CF911F91CB
:100260000F91FF90EF900895CF93DF93EC01888179
:100270009981009711F00E94930B198218821D82B8
:100280001C821B821A82DF91CF910895EF92FF9218
:100290000F931F93CF93DF93EC017B018A01BA0187
:1002A0000E94DF00811104C0CE010E94340107C00A
:1002B0001D830C83B701888199810E94140DCE01A2
:1002C000DF91CF911F910F91FF90EF900895CF9202
:1002D000DF92EF92FF920F931F93CF93DF9300D0A3
:1002E000CDB7DEB78C01F62E83E590E049835A83C3
:1002F0000E943E0560E0F80186850E94460482E186
:100300000E9437054981E42EC42E5A81D52E8C2DAA
:100310008E198F1530F4F60181916F010E94370517
:10032000F6CF61E0F80186850E9446040F900F9099
:10033000DF91CF911F910F91FF90EF90DF90CF90C1
:100340000C9436054F925F926F927F928F929F929C
:10035000AF92BF92CF92DF92EF92FF920F931F93D3
:10036000CF93DF9300D0CDB7DEB74C012B01D42E55
:100370003901E114F10419F0F701408101C040E0B6
:10038000B42EF0E1CF9EB00C112440E062E0C40135
:100390000E945F054FE768E0C4010E945F0540E8E6
:1003A00064E1C4010E945F05A2016D2DC4010E9499
:1003B00067014B2D6AE1C4010E945F054CE062E0D9
:1003C000C4010E945F056AE1C4010E944105482FF3
:1003D00040686AE1C4010E945F0580ED482E87E015
:1003E000582E68E0C4010E944105982F907341F493
:1003F00080FD04C081E0481A510899F783E0A0C04D
:100400006CE0C4010E944105D82E837109F097C0A9
:100410006114710409F459C00115110509F455C09E
:1004200064E1C4010E944105B82EF80180818B155A
:1004300008F47FC0B082BB20E9F183E590E00E9420
:100440003E0560E0F40186850E94460482E90E9430
:100450003705CC20A1F08FEF90E02C0101C0440CB7
:10046000CA94EAF782E90E94370584214094F30197
:100470009081492284298083CC24C39401C0C12C5B
:10048000BA944C2C512C460C571CCB1438F482E9EE
:100490000E943705F2018083C394F3CF80E00E946D
:1004A0003705F201808361E0F40186850E944604ED
:1004B0000E94360568E1C4010E9441058770E1147D
:1004C000F10421F0F701808301C080E0D3FC33C048
:1004D0006114710491F10115110579F1AA2069F1F6
:1004E000F8014081413019F4843019F420C04230C1
:1004F00010F487E025C08111FCCF42509E012F5F90
:100500003F4FB301C4010E948505811119C0F80154
:100510008081680E711CF301329790818981981354
:10052000E8CF319690818A819813E3CF06C08FEF90
:1005300007C084E005C082E003C080E001C081E024
:100540000F900F90DF91CF911F910F91FF90EF903F
:10055000DF90CF90BF90AF909F908F907F906F90E3
:100560005F904F900895089580E090E00895FC0119
:10057000538D448D252F30E0842F90E0821B930B08
:10058000541710F0CF96089501970895FC01918DAE
:10059000828D981761F0828DDF01A80FB11D5D96E5
:1005A0008C91928D9F5F9F73928F90E008958FEF53
:1005B0009FEF0895FC01918D828D981731F0828D07
:1005C000E80FF11D858D90E008958FEF9FEF08955E
:1005D000FC01918D228D892F90E0805C9F4F821BC2
:1005E00091098F739927089580E991E00E94E802AC
:1005F00021E0892B09F420E0822F0895FC01848DED
:10060000DF01A80FB11DA35ABF4F2C91848D90E03C
:1006100001968F739927848FA689B7892C93A08917
:10062000B1898C9180648C93938D848D981306C0CE
:100630000288F389E02D80818F7D80830895EF9279
:10064000FF920F931F93CF93DF93EC0181E0888F8C
:100650009B8D8C8D981305C0E889F989808185FD73
:1006600024C0F62E0B8D10E00F5F1F4F0F73112764
:10067000E02E8C8DE8120CC00FB607FCFACFE8898B
:10068000F989808185FFF5CFCE010E94FE02F1CF6E
:100690008B8DFE01E80FF11DE35AFF4FF0820B8FA7
:1006A000EA89FB898081806207C0EE89FF896083C7
:1006B000E889F98980818064808381E090E0DF911E
:1006C000CF911F910F91FF90EF900895CF93DF93FB
:1006D000EC01888D8823C9F0EA89FB89808185FD3A
:1006E00005C0A889B9898C9186FD0FC00FB607FC9B
:1006F000F5CF808185FFF2CFA889B9898C9185FFDC
:10070000EDCFCE010E94FE02E7CFDF91CF91089599
:1007100080E090E0892B29F00E94F40281110C9472
:10072000000008953FB7F8948091430290914402ED
:10073000A0914502B091460226B5A89B05C02F3F67
:1007400019F00196A11DB11D3FBFBA2FA92F982FF7
:100750008827820F911DA11DB11DBC01CD0142E072
:10076000660F771F881F991F4A95D1F70895DC01FE
:10077000ED91FD91BD010190F081E02D40E00995E2
:1007800091E0811190E0892F08951F920F920FB68A
:100790000F9211242F933F934F935F936F937F9307
:1007A0008F939F93AF93BF93EF93FF9380E991E073
:1007B0000E94FE02FF91EF91BF91AF919F918F91A7
:1007C0007F916F915F914F913F912F910F900FBE4D
:1007D0000F901F9018951F920F920FB60F92112431
:1007E0002F938F939F93EF93FF93E091A001F0914C
:1007F000A1018081E091A601F091A70182FD12C0C4
:1008000090818091A9018F5F8F732091AA01821737
:1008100051F0E091A901F0E0E057FE4F958F8093F1
:10082000A90101C08081FF91EF919F918F912F913C
:100830000F900FBE0F901F901895833081F028F411
:10084000813099F08230A1F008958730A9F0883086
:10085000B9F08430D1F4809180008F7D03C0809105
:1008600080008F7780938000089584B58F7702C0D1
:1008700084B58F7D84BD08958091B0008F7703C0CB
:100880008091B0008F7D8093B00008951F93CF9327
:10089000DF93282F30E0F901EC55FF4F8491F901E7
:1008A000E057FF4FD491F901E458FF4FC491CC2396
:1008B000C9F0162F81110E941D04EC2FF0E0EE0FFD
:1008C000FF1FE052FF4FA591B4918FB7F89411111B
:1008D00005C09C91ED2FE095E92302C0EC91ED2B32
:1008E000EC938FBFDF91CF911F910895CF93DF934A
:1008F00090E0FC01E057FF4F2491FC01E458FF4FCA
:100900008491882361F190E0880F991FFC01E859D8
:10091000FF4FC591D491FC01E052FF4FA591B491D6
:10092000611109C09FB7F89488812095822388833C
:10093000EC912E230BC0623061F49FB7F89438819C
:10094000822F809583238883EC912E2B2C939FBF3D
:1009500006C08FB7F894E8812E2B28838FBFDF91D4
:10096000CF9108958F929F92AF92BF92CF92DF92D4
:10097000EF92FF926B017C010E9492034B015C019C
:10098000C114D104E104F104F1F00E949203DC01EE
:10099000CB0188199909AA09BB09883E9340A10592
:1009A000B10570F321E0C21AD108E108F10888EE20
:1009B000880E83E0981EA11CB11CC114D104E1046F
:1009C000F10419F7DDCFFF90EF90DF90CF90BF904B
:1009D000AF909F908F9008951F920F920FB60F9235
:1009E00011242F933F938F939F93AF93BF93809145
:1009F0003F0290914002A0914102B0914202309199
:100A00003E0223E0230F2D3720F40196A11DB11DD6
:100A100005C026E8230F0296A11DB11D20933E02BA
:100A200080933F0290934002A0934102B093420210
:100A30008091430290914402A0914502B0914602F8
:100A40000196A11DB11D8093430290934402A0938F
:100A50004502B0934602BF91AF919F918F913F9114
:100A60002F910F900FBE0F901F90189508958EBD77
:100A700000000DB407FEFDCF8EB508958CBD9DBD61
:100A800008951F93CF93DF93EC01162F83E590E039
:100A90000E943E0560E08E850E944604812F80689A
:100AA0000E94370580E00E943705182F61E08E858F
:100AB0000E944604812FDF91CF911F910895EF92FC
:100AC000FF921F93CF93DF931F92CDB7DEB77C01C8
:100AD000162F83E590E049830E943E0560E0F70110
:100AE00086850E944604812F0E9437054981842F04
:100AF0000E94370561E0F70186850F90DF91CF9165
:100B00001F91FF90EF900C944604CF92DF92EF92EA
:100B1000FF920F931F93CF93DF93EC016B01142F80
:100B2000790140E062E00E945F0544E06AE0CE01A6
:100B30000E945F0540E864E1CE010E945F05A601C6
:100B4000612FCE010E94670143E062E0CE010E9466
:100B50005F0508E813E16AE0CE010E94410582FFCB
:100B600013C040E062E0CE010E945F0564E4CE0164
:100B70000E944105F701808362E4CE010E94410595
:100B8000F701818380E004C00150110921F783E05F
:100B9000DF91CF911F910F91FF90EF90DF90CF9059
:100BA0000895EF92FF921F93CF93DF931F92CDB7DB
:100BB000DEB77C01162F49830E944105498140958B
:100BC0004823612FC7010F90DF91CF911F91FF90B4
:100BD000EF900C945F058F929F92AF92CF92EF921D
:100BE000FF920F931F93CF93DF9300D000D01F92FB
:100BF000CDB7DEB74C0182E08D8340E064E2C401F2
:100C00000E945F0540E066E2C4010E945F0546E283
:100C100068E4C4010E945F0586E28C838D81823086
:100C200018F140E86CE1C4010E94D10587E08B8394
:100C3000A12CC12CCE0103967C018E010B5F1F4FAE
:100C40009E012F5F3F4F41E0BE016C5F7F4FC401AB
:100C50000E94A20181110BC08D81823039F481E0A4
:100C60009B81911104C008C084E001C081E091E043
:100C7000823019F090E001C091E0892F0F900F9021
:100C80000F900F900F90DF91CF911F910F91FF90D8
:100C9000EF90CF90AF909F908F9008952F923F92BA
:100CA0004F925F926F927F928F929F92AF92BF927C
:100CB000CF92DF92EF92FF920F931F93CF93DF9328
:100CC000CDB7DEB72D970FB6F894DEBF0FBECDBF00
:100CD000413508F00AC1342E3B014C0140E86CE17B
:100CE0000E94D105BB24B39442E0B41691F083E096
:100CF000B816E1F091E0B912FCC083E98983332092
:100D0000D1F081E0F3019081953008F480E0D12C9E
:100D100017C085E98983332081F081E0F301908158
:100D2000983008F480E053E0D52E0AC087E9898323
:100D300046E0D42E04C0D12C02C033E0D32E80E094
:100D4000532DF8EFDF9E500D112457FD50E08823FE
:100D500021F098E89B8343E001C042E021E0952F19
:100D6000977009F420E0952F959595959595290F05
:100D700021F4882311F1585F20C0811102C094E052
:100D800001C093E0291708F4922F20E030E06D2D88
:100D900070E0E42FE20FA1E0B0E0AC0FBD1FAE0F9A
:100DA000B11DF901E60FF71FE60DF71DE181EC9388
:100DB0002F5F3F4F291768F3DCCF23E0222E5032FC
:100DC000FCF040E74A839C818B8189279D8189279C
:100DD0009E8189278F839E01285F3F4F47E0BE0198
:100DE0006F5F7F4FC4015D870E9485055D8581111E
:100DF000CCC01B862A86CE0107962C0179E01EC046
:100E0000952F97709B87252F25952595259582E011
:100E1000820F392FE0E18E9F300D11243A8371E06B
:100E2000911101C070E0780F44244394512C4C0E72
:100E30005D1E480E511C87E0821B8A87CB844C2D97
:100E40004295407F4C0D6AE1C4015D877C870E941A
:100E50005F05A12CCE010B967C018E01065F1F4F12
:100E600092017C85472FBE016F5F7F4FC4010E94B6
:100E7000A2015D85823099F56CE1C4010E944105B3
:100E80005D8585FD34C08F7109F480E2282F30E044
:100E9000452F550F550B421753075CF5582F822FDE
:100EA00085958595859591E0980F422F477081E053
:100EB00009F480E0890FE1E0F0E0EC0FFD1FE80F9E
:100EC000F11D215031092770332781E090E001C0E6
:100ED000880F2A95EAF79081892B808370CF811142
:100EE00054C0503244F450E26CCF86E04EC082E0F1
:100EF0004CC085E04AC08B81883809F043C033E09C
:100F000023E080E090E06D2D70E0FC01E60FF71F1C
:100F1000E60DF71D432F480FA1E0B0E0AC0FBD1F59
:100F2000A40FB11D4C9141830196821770F38A85FD
:100F3000833021F58B85811121C09E012D5F3F4FAC
:100F400041E0B201C4010E94850581111EC09B8150
:100F5000F2018181981314C09C818281981310C082
:100F6000808182FF02C0B394BFCEF30183878B2DB3
:100F7000880FB80EB394B08280E007C081E005C04E
:100F800087E003C032E024E0BCCF2D960FB6F89482
:100F9000DEBF0FBECDBFDF91CF911F910F91FF90AC
:100FA000EF90DF90CF90BF90AF909F908F907F9009
:100FB0006F905F904F903F902F900895E0E9F1E09F
:100FC0001382128288EE93E0A0E0B0E084839583E0
:100FD000A683B7838BE491E09183808385EC90E0D6
:100FE0009587848784EC90E09787868780EC90E0F3
:100FF000918B808B81EC90E0938B828B82EC90E0E4
:10100000958B848B86EC90E0978B868B118E128E5D
:10101000138E148EEEE2F2E08DE591E091838083F1
:101020008AE0868789E087870895CF93DF93CDB7DD
:10103000DEB765970FB6F894DEBF0FBECDBF7894CC
:1010400084B5826084BD84B5816084BD85B58260CD
:1010500085BD85B5816085BD80916E00816080937E
:101060006E001092810080918100826080938100E7
:1010700080918100816080938100809180008160F7
:10108000809380008091B10084608093B100809152
:10109000B00081608093B00080917A00846080937A
:1010A0007A0080917A00826080937A0080917A0041
:1010B000816080937A0080917A00806880937A00C2
:1010C0001092C100E091A001F091A10182E0808323
:1010D000E0919C01F0919D011082E0919E01F091C0
:1010E0009F018FEC80831092A801E091A401F09100
:1010F000A50186E08083E091A201F091A3018081A7
:1011000080618083E091A201F091A30180818860D9
:101110008083E091A201F091A301808180688083A7
:10112000E091A201F091A30180818F7D808361E035
:1011300082E00E9476041FB7F89480912D028111FD
:1011400027C0E6E8F0E08491EAE9F0E09491E82F26
:10115000F0E0EE0FFF1FE859FF4FA591B491EC911D
:10116000E92321F461E08AE00E94460461E08AE01C
:101170000E9476048CB580618CBD8CB580648CBD7A
:1011800061E08DE00E94760461E08BE00E947604CD
:1011900080912D028F5F80932D021FBF61E08091AF
:1011A0003C020E94760461E080913C020E94460469
:1011B00080913D028F3F41F44FE062E08EE292E089
:1011C0000E945F0513E025C060E00E947604209134
:1011D0003D0230E0F901EC55FF4F8491F901E057F1
:1011E000FF4F0491F901E458FF4F14911123F9F0D6
:1011F00081110E941D04E12FF0E0EE0FFF1FEE5859
:10120000FF4FA591B491EC91E02389F0D5CF115017
:10121000F1F062E370E080E090E00E94B20462E0EE
:101220008EE292E00E94410584FF11C0F0CF61E0A0
:1012300080913D020E94760461E080913D020E940F
:10124000460462E370E080E090E00E94B20440E077
:1012500064E28EE292E00E945F0540E066E28EE288
:1012600092E00E945F0546E268E48EE292E00E940E
:101270005F0540E864E58EE292E00E945F0549EA7E
:1012800066E58EE292E00E945F0543E068E58EE24B
:1012900092E00E945F0548EE6AE58EE292E00E94CD
:1012A0005F0540E46AE28EE292E00E945F054DE352
:1012B00062E28EE292E00E945F0568E28EE292E0D6
:1012C0000E944105982F9370933039F0482F436066
:1012D00068E28EE292E00E945F05CE0101964C0129
:1012E0008EE292E00E94EB058823E9F08EE292E024
:1012F0000E94B7038823B9F0E0913B02EF77E13415
:1013000008F00FC1F0E0EA5FFE4F80818350833028
:10131000E0F008EB10E0F8016491611107C087E686
:1013200091E00E94CB000E948803DACFE091900107
:10133000F09191010190F081E02D80E991E0099513
:101340000F5F1F4F892B39F7EACF198A188A1B8A3A
:101350001A8A1D8A1C8A40E050E069E671E0CE01DD
:1013600040960E94460181E3E82E82E0F82ED12CBF
:1013700003E611E05701F70181917F011B861A8670
:101380001D861C861F861E8640E1B40190E00E94E7
:10139000970AF40101900020E9F73197AF0148194D
:1013A0005909B401CE010A960E944601F5018081D7
:1013B000803118F069E671E002C065E671E01A82DA
:1013C00019821C821B821E821D82FB01019000205B
:1013D000E9F73197AF01461B570BC4010E94460144
:1013E0004E855F856A857B85C4010E940601811157
:1013F00003C0C4010E943401F80101900020E9F704
:101400003197AF01401B510BB801C4010E94060186
:10141000882309F488C04D815E8169817A81CE017B
:1014200040960E94060189819A810E94930B8A85C9
:101430009B850E94930BD394F4E0DF1631F0F3E028
:10144000DF1296CF09E611E095CF088919890115B9
:10145000110529F48C899D89892B41F10DC0F80172
:1014600080818823B9F3082E000C990B0E94FA0C96
:10147000F80181938F01F3CF65E771E0888999893D
:101480000E940B0D892B91F461E082E00E944604DA
:101490008AE691E00E94CB0087E691E00E94CB00B3
:1014A00068EE73E080E090E00E94B20460E082E0C9
:1014B0000E94460481E891E00E94CB004C895D893E
:1014C0006889798980E991E00E94A00087E691E02F
:1014D0000E94CB0080E589831A829E012D5F3F4FD9
:1014E00042E0B4018EE292E00E94850581110EC0B7
:1014F000A12CC12CE12CF12C00E010E020E030E028
:1015000044E0B4018EE292E00E94A20148E060E172
:101510008EE292E00E94D105888999890E94930BFE
:1015200002CF80E0F3CEC4010E94340174CFBB2708
:10153000FB015527AA27880F991FAA1FA41710F08F
:10154000A41B83955051B9F7A05DAA3308F0A95D9B
:10155000A193009779F7B111B1931192CB010C943B
:10156000B10ADC01FC01672F71917723E1F7329713
:1015700004C07C916D9370836291AE17BF07C8F36E
:1015800008952F923F924F925F926F927F928F9227
:101590009F92AF92BF92CF92DF92EF92FF920F9302
:1015A0001F93CF93DF93CDB7DEB7CA1BDB0B0FB60C
:1015B000F894DEBF0FBECDBF09942A8839884888C9
:1015C0005F846E847D848C849B84AA84B984C8845F
:1015D000DF80EE80FD800C811B81AA81B981CE0F56
:1015E000D11D0FB6F894DEBF0FBECDBFED0108953B
:1015F000EE0FFF1F0590F491E02D0994CF93DF9338
:101600008230910510F482E090E0E0914902F0917F
:101610004A0220E030E0C0E0D0E0309711F1408194
:10162000518148175907C0F04817590761F4828162
:101630009381209719F09B838A832BC090934A0251
:101640008093490226C02115310519F0421753072E
:1016500018F49A01BE01DF01EF010280F381E02D51
:10166000DCCF2115310509F1281B390B2430310558
:1016700090F412968D919C9113976115710521F04C
:10168000FB019383828304C090934A0280934902B2
:10169000FD01329644C0FD01E20FF31F8193919347
:1016A000225031092D933C933AC02091470230914A
:1016B0004802232B41F42091020130910301309321
:1016C0004802209347022091000130910101211529
:1016D000310541F42DB73EB7409104015091050109
:1016E000241B350BE0914702F0914802E217F30703
:1016F000A0F42E1B3F0B2817390778F0AC014E5F82
:101700005F4F2417350748F04E0F5F1F5093480274
:10171000409347028193919302C0E0E0F0E0CF0153
:10172000DF91CF9108950F931F93CF93DF9300978D
:1017300009F48CC0FC013297138212820091490295
:1017400010914A020115110581F420813181820F27
:10175000931F20914702309148022817390779F5E5
:10176000F0934802E093470271C0D80140E050E096
:10177000AE17BF0750F412962D913C911397AD010F
:101780002115310509F1D901F3CF9D01DA01338328
:10179000228360817181860F971F8217930769F4F6
:1017A000EC0128813981260F371F2E5F3F4F31838F
:1017B00020838A819B8193838283452B29F4F09334
:1017C0004A02E093490242C01396FC93EE931297AB
:1017D000ED01499159919E01240F351FE217F3073E
:1017E00071F480819181840F951F029611969C93CC
:1017F0008E938281938113969C938E931297E0E04F
:10180000F0E0D80112968D919C911397009719F0F2
:10181000F8018C01F6CF8D919C9198012E5F3F4F7E
:10182000820F931F209147023091480228173907F1
:1018300069F4309729F410924A021092490202C0CA
:10184000138212821093480200934702DF91CF91D6
:101850001F910F910895A0E0B0E0E1E3FCE00C944B
:10186000C50AEC01009721F4CB010E94FE0AB8C022
:10187000FC01E60FF71F9C0122503109E217F30724
:1018800008F4ACC0D9010D911C91119706171707E8
:10189000B0F00530110508F49FC0C8010497861701
:1018A000970708F499C002501109061B170B019302
:1018B00011936D937C93CF010E94930B8DC05B01BC
:1018C000A01AB10A4C01800E911EA0914902B0915C
:1018D0004A0240E050E0E12CF12C109709F44AC094
:1018E000A815B905D1F56D907C901197630182E040
:1018F000C80ED11CCA14DB0480F1A3014A195B098C
:101900006A0182E0C80ED11C1296BC901297139601
:10191000AC91B5E0CB16D10440F0B282A3835183E1
:101920004083D9016D937C930AC00E5F1F4FC301A2
:10193000800F911FF90191838083EB2DFA2FE11421
:10194000F10431F0D7011396FC93EE93129744C043
:10195000F0934A02E09349023FC08D919C91119708
:101960004817590708F4AC017D0112960D90BC91FF
:10197000A02DB3CF80914702909148028815990518
:10198000E1F446175707C8F48091000190910101D6
:10199000009741F48DB79EB7409104015091050125
:1019A000841B950BE817F907C8F4F0934802E093FD
:1019B0004702F901718360830FC0CB010E94FE0AC8
:1019C0007C01009759F0A801BE010E94020DCE01D2
:1019D0000E94930BC70104C0CE0102C080E090E0DA
:1019E000CDB7DEB7EEE00C94E10A81E090E0F89428
:1019F0000C941B0D9111089581568A5108F4805260
:101A000085580895FB01DC0102C001900D92415000
:101A10005040D8F70895FB01DC018D9101908019A9
:101A20000110D9F3990B0895FB01DC0101900D928F
:0A1A30000020E1F70895F894FFCFBD
:101A3A0000004B02800006090000FF0000000403BA
:101A4A000000000000000707000000000000050079
:101A5A00000000000000010000000000000000007B
:101A6A00000000000000000000000000000000006C
:101A7A0000000000000002000000001F03A000B7E1
:101A8A00026603E802C602DA02000000004E06EB14
:101A9A0005B7033A0030000D0A006865742049440E
:101AAA002069733A2039363A37453A44423A44393A
:101ABA00005461702063617264206B65793A20007A
:107E0000112484B714BE81FFF0D085E080938100F7
:107E100082E08093C00088E18093C10086E0809377
:107E2000C20080E18093C4008EE0C9D0259A86E02C
:107E300020E33CEF91E0309385002093840096BBD3
:107E4000B09BFECF1D9AA8958150A9F7CC24DD24C4
:107E500088248394B5E0AB2EA1E19A2EF3E0BF2EE7
:107E6000A2D0813461F49FD0082FAFD0023811F036
:107E7000013811F484E001C083E08DD089C08234E0
:107E800011F484E103C0853419F485E0A6D080C0E4
:107E9000853579F488D0E82EFF2485D0082F10E0AE
:107EA000102F00270E291F29000F111F8ED06801E7
:107EB0006FC0863521F484E090D080E0DECF843638
:107EC00009F040C070D06FD0082F6DD080E0C81688
:107ED00080E7D80618F4F601B7BEE895C0E0D1E017
:107EE00062D089930C17E1F7F0E0CF16F0E7DF06D8
:107EF00018F0F601B7BEE89568D007B600FCFDCFD4
:107F0000A601A0E0B1E02C9130E011968C91119780
:107F100090E0982F8827822B932B1296FA010C0160
:107F200087BEE89511244E5F5F4FF1E0A038BF0790
:107F300051F7F601A7BEE89507B600FCFDCF97BE46
:107F4000E89526C08437B1F42ED02DD0F82E2BD052
:107F50003CD0F601EF2C8F010F5F1F4F84911BD097
:107F6000EA94F801C1F70894C11CD11CFA94CF0C13
:107F7000D11C0EC0853739F428D08EE10CD085E9AC
:107F80000AD08FE07ACF813511F488E018D01DD067
:107F900080E101D065CF982F8091C00085FFFCCF94
:107FA0009093C60008958091C00087FFFCCF809118
:107FB000C00084FD01C0A8958091C6000895E0E648
:107FC000F0E098E1908380830895EDDF803219F02E
:107FD00088E0F5DFFFCF84E1DECF1F93182FE3DFCA
:107FE0001150E9F7F2DF1F91089580E0E8DFEE27F6
:047FF000FF270994CA
:027FFE00040479
:0400000300007E007B
:00000001FF