:100000000C9463000C948B000C948B000C948B006C
:100010000C948B000C948B000C948B000C948B0034
:100020000C948B000C948B000C948B000C948B0024
:100030000C948B000C948B000C948B000C948B0014
:100040000C949B080C948B000C94A9010C948301D4
:100050000C948B000C948B000C948B000C948B00F4
:100060000C948B000C948B000000000024002700EF
:100070002A00010204081020408001020408102018
:10008000010204081020040404040404040402020D
:100090000202020203030303030300000000250021
:1000A00028002B000000000023002600290000008B
:1000B0000008000201000003040700000000000027
:1000C0000000800F4D1011241FBECFEFD8E0DEBF1F
:1000D000CDBF23E0A8E1B2E001C01D92A73AB2076C
:1000E000E1F712E0A0E0B1E0E8E1F6E202C005903D
:1000F0000D92A831B107D9F710E0C2E6D0E004C0F4
:100100002197FE010E94DC10C136D107C9F70E9479
:100110008F0B0C94FF120C940000CF92DF92EF92A1
:10012000FF920F931F93CF93DF936C017A018B01A2
:10013000C0E0D0E0CE15DF0589F0D8016D918D01CA
:10014000D601ED91FC910190F081E02DC601099559
:10015000892B11F47E0102C02196ECCFC701DF91FB
:10016000CF911F910F91FF90EF90DF90CF90089566
:10017000089580E090E00895FC01538D448D252F73
:1001800030E0842F90E0821B930B541710F0CF9631
:10019000089501970895FC01918D828D981761F063
:1001A000828DDF01A80FB11D5D968C91928D9F5FAE
:1001B0009F73928F90E008958FEF9FEF0895FC0159
:1001C000918D828D981731F0828DE80FF11D858D0C
:1001D00090E008958FEF9FEF0895FC01918D228D9F
:1001E000892F90E0805C9F4F821B91098F73992724
:1001F000089584E292E00E94ED0021E0892B09F449
:1002000020E0822F0895EF92FF920F931F93CF93D8
:10021000DF93EC0181E0888F9B8D8C8D981305C056
:10022000E889F989808185FD24C0F62E0B8D10E0C8
:100230000F5F1F4F0F731127E02E8C8DE8120CC03B
:100240000FB607FCFACFE889F989808185FFF5CFE1
:10025000CE010E949407F1CF8B8DFE01E80FF11DB6
:10026000E35AFF4FF0820B8FEA89FB89808180621D
:1002700007C0EE89FF896083E889F98980818064FD
:10028000808381E090E0DF91CF911F910F91FF90EB
:10029000EF900895CF93DF93EC01888D8823C9F008
:1002A000EA89FB89808185FD05C0A889B9898C917F
:1002B00086FD0FC00FB607FCF5CF808185FFF2CF1A
:1002C000A889B9898C9185FFEDCFCE010E94940752
:1002D000E7CFDF91CF9108956115710579F0FB01AA
:1002E00001900020E9F73197AF01461B570BDC0165
:1002F000ED91FC910280F381E02D099480E090E083
:1003000008950C946C011F920F920FB60F92112456
:100310002F933F934F935F936F937F938F939F930D
:10032000AF93BF93EF93FF9384E292E00E94940710
:10033000FF91EF91BF91AF919F918F917F916F91BD
:100340005F914F913F912F910F900FBE0F901F9093
:1003500018951F920F920FB60F9211242F938F931F
:100360009F93EF93FF93E0913402F09135028081E7
:10037000E0913A02F0913B0282FD12C0908180919F
:100380003D028F5F8F7320913E02821751F0E09102
:100390003D02F0E0EC5DFD4F958F80933D0201C082
:1003A0008081FF91EF919F918F912F910F900FBEC0
:1003B0000F901F90189596E0899FD0011124A75F98
:1003C000BC4F90967C936E935F9791E091969C932F
:1003D000919790917503E0917603F09177039923BB
:1003E00039F0309751F0811108C08091250304C085
:1003F000309719F05C968C91099408950F931F9390
:10040000CF93DF93C82FD62F86E0C89FF001112429
:10041000E75FFC4F11A2878D90A181309105F1F02B
:100420001CF4892B49F043C082309105A9F1039750
:10043000F1F560E070E034C06623C9F161E070E07E
:100440008C2F0E94DB010E948F08609361037093E0
:100450006203809363039093640329C00E948F0812
:100460000091610310916203209163033091640352
:10047000AB01BC01401B510B620B730B80917303EA
:1004800090917403A0E0B0E084179507A607B70722
:1004900018F462E070E004C0D11109C063E070E0BC
:1004A0008C2FDF91CF911F910F910C94DB01DF9185
:1004B000CF911F910F9108950E94D9120F931F930E
:1004C000CF93DF93EC0188819981009729F02A81ED
:1004D0003B812617370788F48B016F5F7F4F0E949F
:1004E0000F12009761F0998388831B830A832C8104
:1004F0003D81232B11F4FC01108281E001C080E0DA
:10050000DF91CF911F910F910895EF92FF920F937A
:100510001F93CF93DF93EC017B018A01BA010E9404
:100520005E022881398181110DC02115310519F034
:10053000C9010E947711198218821D821C821B82B8
:100540001A8206C01D830C83B701C9010E94F812EC
:10055000CE01DF91CF911F910F91FF90EF90089501
:10056000E4E2F2E0A089B18982E08C93A485B585AC
:100570001C92A685B7858FEC8C93108EA489B589C3
:1005800086E08C93A289B3898C9180618C93A28937
:10059000B3898C9188608C93A289B3898C9180688F
:1005A0008C930288F389E02D80818F7D808308956C
:1005B0008F929F92AF92BF92CF92DF92EF92FF9273
:1005C0006B017C010E948F084B015C01C60ED71E97
:1005D000E81EF91E0E948F08681579058A059B059B
:1005E00028F0C616D706E806F906A0F7FF90EF90A8
:1005F000DF90CF90BF90AF909F908F900895209103
:100600007C0330917D03DC0114964D915C9115972C
:100610002417350721F5E0917803F09179036D9166
:100620007C91309719F06115710599F46115710588
:1006300049F0232BB1F0FB01808190E091958195E9
:1006400091090AC0309769F0232B59F0808190E01E
:1006500003C0CF010E94EF1221E0892B19F020E0A6
:1006600001C021E0822F08950F931F93CF93DF9352
:1006700000D0CDB7DEB789831A8200917C03109138
:100680007D030F5F1F4FB80188E793E00E945E0271
:100690008823A1F0209178033091790380917C0325
:1006A00090917D03BE016F5F7F4F820F931F0E9469
:1006B000F81210937D0300937C0381E00F900F905C
:1006C000DF91CF911F910F9108954F925F926F929A
:1006D0007F928F929F92AF92BF92CF92DF92EF92D2
:1006E000FF920F931F93CF93DF93412C512C320134
:1006F0004394CC24CA94DC2C81E0809375030E943F
:100700008F08009165031091660320916703309173
:100710006803AB01BC01401B510B620B730B809152
:10072000710390917203A0E0B0E084179507A607CB
:10073000B70710F7C0E080916F03C81760F4E0912D
:100740006B03F0916C03EC0FF11D62E080810E945D
:100750001508CF5FF0CF912C80917003981608F0A8
:100760005FC0092D10E0E0916D03F0916E03E00F82
:10077000F11F61E080810E941508E0916D03F09106
:100780006E03E00FF11F60E080810E94E107D3015A
:10079000C201092C04C0880F991FAA1FBB1F0A940D
:1007A000D2F75C017C01E094F094812C80916F037E
:1007B0008816F8F4C82DD0E0E0916B03F0916C033B
:1007C000EC0FFD1F80810E94B5072496CC0FDD1F22
:1007D000C75FDC4F892B29F4888199818A299B295D
:1007E00004C0888199818E219F2199838883839475
:1007F000DDCFE0916D03F0916E03E00FF11F61E03A
:1008000080810E94E10780916D0390916E03FC014D
:10081000E00FF11F60E080810E94150893949CCF47
:10082000E5E2F3E083819481892B21F41082D28266
:10083000C1821582369683E0E136F80799F710E019
:1008400006E080916F03181708F052C0F12CC12FF9
:10085000D0E0CC0FDD1FCF5EDC4F20917003F2168D
:1008600008F044C0688179810F2C02C076956795A5
:100870000A94E2F761707727129F900111242F0DDF
:10088000311DE0916903F0916A03E20FF31FA0812B
:10089000E9E0F3E080E0458D568D4217530711F4EF
:1008A00061701AC08F5F36968A30A9F7672BE1F026
:1008B000E5E2F3E080E090E04081411110C0089F44
:1008C000F001099FF00D1124E75FFC4FA48F368FD4
:1008D000258F10A2178E61E00E94FE0105C00196CF
:1008E00036968A30910541F7F394B7CF1F5FA9CFB1
:1008F00080E090E0C0E0FC01E75FFC4F21A1211106
:10090000C1E006968C339105B1F70E948F08609381
:100910006503709366038093670390936803CC2309
:1009200009F4EACE80912A03882309F4E5CE809168
:10093000280390912903019709F0DECE80912503C9
:10094000882309F4D9CEDF91CF911F910F91FF90A9
:10095000EF90DF90CF90BF90AF909F908F907F905F
:100960006F905F904F900895CF92DF92EF92FF9239
:100970000F931F93CF93DF9300D0CDB7DEB78C01D9
:10098000F62E83E590E049835A830E94ED0860E0EB
:10099000F80186850E94E10782E10E94E60849810C
:1009A000E42EC42E5A81D52E8C2D8E198F1530F43D
:1009B000F60181916F010E94E608F6CF61E0F8012F
:1009C00086850E94E1070F900F90DF91CF911F91D4
:1009D0000F91FF90EF90DF90CF900C94E5084F922D
:1009E0005F926F927F928F929F92AF92BF92CF92BF
:1009F000DF92EF92FF920F931F93CF93DF9300D07C
:100A0000CDB7DEB74C012B01D42E3901E114F1042E
:100A100019F0F701408101C040E0B42EF0E1CF9E13
:100A2000B00C112440E062E0C4010E940E094FE7BF
:100A300068E0C4010E940E0940E864E1C4010E941C
:100A40000E09A2016D2DC4010E94B4044B2D6AE170
:100A5000C4010E940E094CE062E0C4010E940E092C
:100A60006AE1C4010E94F008482F40686AE1C401AD
:100A70000E940E0980ED482E87E0582E68E0C401E0
:100A80000E94F008982F907341F480FD04C081E02B
:100A9000481A510899F783E0A0C06CE0C4010E9495
:100AA000F008D82E837109F097C06114710409F41D
:100AB00059C00115110509F455C064E1C4010E9433
:100AC000F008B82EF80180818B1508F47FC0B08241
:100AD000BB20E9F183E590E00E94ED0860E0F401BD
:100AE00086850E94E10782E90E94E608CC20A1F0F9
:100AF0008FEF90E02C0101C0440CCA94EAF782E920
:100B00000E94E60884214094F301908149228429BF
:100B10008083CC24C39401C0C12CBA944C2C512C9A
:100B2000460C571CCB1438F482E90E94E608F20107
:100B30008083C394F3CF80E00E94E608F2018083B3
:100B400061E0F40186850E94E1070E94E50868E102
:100B5000C4010E94F0088770E114F10421F0F7014C
:100B6000808301C080E0D3FC33C06114710491F133
:100B70000115110579F1AA2069F1F8014081413090
:100B800019F4843019F420C0423010F487E025C0F5
:100B90008111FCCF42509E012F5F3F4FB301C40132
:100BA0000E949C09811119C0F8018081680E711C96
:100BB000F3013297908189819813E8CF3196908123
:100BC0008A819813E3CF06C08FEF07C084E005C089
:100BD00082E003C080E001C081E00F900F90DF91C0
:100BE000CF911F910F91FF90EF90DF90CF90BF902A
:100BF000AF909F908F907F906F905F904F900895EF
:100C0000FC0124813581232B31F421E0611571052C
:100C1000A1F0FB0108C0FC01808191816115710583
:100C200031F421E0FC018081882339F005C00E9465
:100C3000EF1221E0892B09F020E0822F0895EF9236
:100C4000FF920F931F93CF93DF93FB012481358194
:100C5000E080F180FC0104811581E114F10411F4BC
:100C600080E017C02115310599F0EC01020F131F28
:100C7000B8010E945E02882399F3288139818C8112
:100C80009D81B701820F931F0E94F8121D830C8370
:100C900081E0DF91CF911F910F91FF90EF90089528
:100CA000CF93DF93EC016115710559F0FB010190C1
:100CB0000020E9F73197AF01461B570B0E948502D0
:100CC0000CC088819981009711F00E9477111982D8
:100CD00018821D821C821B821A82CE01DF91CF9165
:100CE0000895FC01808191810C947711FC0111829F
:100CF000108213821282158214826115710551F0DF
:100D0000FB0101900020E9F73197AF01461B570B1B
:100D10000C9485020895BF92CF92DF92EF92FF92DA
:100D20000F931F93CF93DF936C017B01EA01209710
:100D300029F400E010E0C1E0D0E002C001E010E0E2
:100D400068E571E0C6010E947606D70114968D9180
:100D50009C91159708171907C8F48C179D0708F47C
:100D6000EC01D701ED91FC911197EC0FFD1FB080C4
:100D700010826D917C91600F711FC6010E94500618
:100D8000F70140815181C40FD51FB882C601DF91A0
:100D9000CF911F910F91FF90EF90DF90CF90BF9078
:100DA00008954F925F926F927F92EF92FF920F930E
:100DB0001F93CF93DF93CDB7DEB7A1970FB6F8940B
:100DC000DEBF0FBECDBF7C01FA01CB0119A22230DC
:100DD00008F42AE08E010F5D1F4F422E512C612C2A
:100DE000712CBF01A30192010E948310F901CA0175
:100DF000015011096A3014F4605D01C0695CD801CA
:100E00006C93232B242B252B61F7B801C7010E947B
:100E10006C01A1960FB6F894DEBF0FBECDBFDF9177
:100E2000CF911F910F91FF90EF907F906F905F9007
:100E30004F9008950F931F93CF93DF93EC010E947F
:100E40006C018C0166E571E0CE010E946C01800F9F
:100E5000911FDF91CF911F910F91089580E090E055
:100E6000892B29F00E94F90081110C94000008954B
:100E7000833081F028F4813099F08230A1F0089518
:100E80008730A9F08830B9F08430D1F480918000A7
:100E90008F7D03C0809180008F77809380000895BC
:100EA00084B58F7702C084B58F7D84BD089580910D
:100EB000B0008F7703C08091B0008F7D8093B00029
:100EC00008953FB7F89480919F039091A003A0915B
:100ED000A103B091A20326B5A89B05C02F3F19F02E
:100EE0000196A11DB11D3FBFBA2FA92F982F8827AA
:100EF000820F911DA11DB11DBC01CD0142E0660F05
:100F0000771F881F991F4A95D1F70895DC01ED914D
:100F1000FD91BD010190F081E02D40E0099591E047
:100F2000811190E0892F0895FC01848DDF01A80FC5
:100F3000B11DA35ABF4F2C91848D90E001968F7301
:100F40009927848FA689B7892C93A089B1898C9120
:100F500080648C93938D848D981306C00288F389E6
:100F6000E02D80818F7D80830895CF93DF93282F9C
:100F700030E0F901E255FF4F8491F901EE58FF4F3F
:100F8000D491F901EA57FF4FC491CC2391F081111C
:100F90000E943807EC2FF0E0EE0FFF1FEC55FF4FDB
:100FA000A591B491EC91ED2381E090E021F480E0F3
:100FB00002C080E090E0DF91CF910895862F0C94DD
:100FC000B5071F93CF93DF93282F30E0F901E25547
:100FD000FF4F8491F901EE58FF4FD491F901EA5780
:100FE000FF4FC491CC23C9F0162F81110E943807FE
:100FF000EC2FF0E0EE0FFF1FE656FF4FA591B491E6
:101000008FB7F894111105C09C91ED2FE095E9235D
:1010100002C0EC91ED2BEC938FBFDF91CF911F912C
:101020000895862F642F0C94E107CF93DF9390E00F
:10103000FC01EE58FF4F2491FC01EA57FF4F8491C9
:10104000882361F190E0880F991FFC01E859FF4F58
:10105000C591D491FC01E656FF4FA591B491611161
:1010600009C09FB7F8948881209582238883EC91EA
:101070002E230BC0623061F49FB7F8943881822F21
:10108000809583238883EC912E2B2C939FBF06C0E1
:101090008FB7F894E8812E2B28838FBFDF91CF91F3
:1010A0000895862F642F0C9415088F929F92AF920B
:1010B000BF92CF92DF92EF92FF926B017C010E9470
:1010C00061074B015C01C114D104E104F104F1F0AA
:1010D0000E946107DC01CB0188199909AA09BB09A3
:1010E000883E9340A105B10570F321E0C21AD108F2
:1010F000E108F10888EE880E83E0981EA11CB11C5F
:10110000C114D104E104F10419F7DDCFFF90EF9091
:10111000DF90CF90BF90AF909F908F9008952FB7A2
:10112000F89460919B0370919C0380919D03909132
:101130009E032FBF08951F920F920FB60F92112496
:101140002F933F938F939F93AF93BF9380919B0374
:1011500090919C03A0919D03B0919E0330919A03BE
:1011600023E0230F2D3720F40196A11DB11D05C0EA
:1011700026E8230F0296A11DB11D20939A038093A8
:101180009B0390939C03A0939D03B0939E03809137
:101190009F039091A003A091A103B091A203019697
:1011A000A11DB11D80939F039093A003A093A10361
:1011B000B093A203BF91AF919F918F913F912F91D7
:1011C0000F900FBE0F901F90189508958EBD0000D0
:1011D0000DB407FEFDCF8EB508958CBD9DBD08955D
:1011E0001F93CF93DF93EC01162F83E590E00E94CD
:1011F000ED0860E08E850E94E107812F80680E94E3
:10120000E60880E00E94E608182F61E08E850E94C3
:10121000E107812FDF91CF911F910895EF92FF9207
:101220001F93CF93DF931F92CDB7DEB77C01162FAC
:1012300083E590E049830E94ED0860E0F701868530
:101240000E94E107812F0E94E6084981842F0E94B5
:10125000E60861E0F70186850F90DF91CF911F913D
:10126000FF90EF900C94E1078F929F92AF92CF92F4
:10127000EF92FF920F931F93CF93DF9300D000D094
:101280001F92CDB7DEB74C0182E08D8340E064E26F
:10129000C4010E940E0940E066E2C4010E940E09EA
:1012A00046E268E4C4010E940E0986E28C838D81C7
:1012B000823040F16CE1C4010E94F008482F4F7762
:1012C0006CE1C4010E940E0987E08B83A12CC12C24
:1012D000CE0103967C018E010B5F1F4F9E012F5F95
:1012E0003F4F41E0BE016C5F7F4FC4010E94EF049D
:1012F00081110BC08D81823039F481E09B81911185
:1013000004C008C084E001C081E091E0823019F09F
:1013100090E001C091E0892F0F900F900F900F90F7
:101320000F90DF91CF911F910F91FF90EF90CF9091
:10133000AF909F908F900895CF92DF92EF92FF929F
:101340000F931F93CF93DF93EC016B01142F79015F
:1013500040E062E00E940E0944E06AE0CE010E9493
:101360000E0940E864E1CE010E940E09A601612F3A
:10137000CE010E94B40443E062E0CE010E940E0957
:1013800008E813E16AE0CE010E94F00882FF13C072
:1013900040E062E0CE010E940E0964E4CE010E94AA
:1013A000F008F701808362E4CE010E94F008F701A3
:1013B000818380E004C00150110921F783E0DF91AF
:1013C000CF911F910F91FF90EF90DF90CF900895F4
:1013D0002F923F924F925F926F927F928F929F9245
:1013E000AF92BF92CF92DF92EF92FF920F931F9333
:1013F000CF93DF93CDB7DEB72D970FB6F894DEBF4E
:101400000FBECDBF413508F00FC1342E3B014C015A
:101410006CE10E94F008482F4F776CE1C4010E94F4
:101420000E09BB24B39442E0B41691F083E0B816E1
:10143000E1F091E0B912FCC083E989833320D1F057
:1014400081E0F3019081953008F480E0D12C17C041
:1014500085E98983332081F081E0F3019081983020
:1014600008F480E053E0D52E0AC087E9898346E07E
:10147000D42E04C0D12C02C033E0D32E80E0532DF3
:10148000F8EFDF9E500D112457FD50E0882321F026
:1014900098E89B8343E001C042E021E0952F9770DC
:1014A00009F420E0952F959595959595290F21F4B0
:1014B000882311F1585F20C0811102C094E001C05F
:1014C00093E0291708F4922F20E030E06D2D70E0B2
:1014D000E42FE20FA1E0B0E0AC0FBD1FAE0FB11DD5
:1014E000F901E60FF71FE60DF71DE181EC932F5F81
:1014F0003F4F291768F3DCCF23E0222E5032FCF057
:1015000040E74A839C818B8189279D8189279E8121
:1015100089278F839E01285F3F4F47E0BE016F5FA1
:101520007F4FC4015D870E949C095D858111CCC0FD
:101530001B862A86CE0107962C0179E01EC0952FC6
:1015400097709B87252F25952595259582E0820FFD
:10155000392FE0E18E9F300D11243A8371E0911113
:1015600001C070E0780F44244394512C4C0E5D1E52
:10157000480E511C87E0821B8A87CB844C2D4295F4
:10158000407F4C0D6AE1C4015D877C870E940E0993
:10159000A12CCE010B967C018E01065F1F4F92019C
:1015A0007C85472FBE016F5F7F4FC4010E94EF040F
:1015B0005D85823099F56CE1C4010E94F0085D857B
:1015C00085FD34C08F7109F480E2282F30E0452F6B
:1015D000550F550B421753075CF5582F822F8595F1
:1015E0008595859591E0980F422F477081E009F429
:1015F00080E0890FE1E0F0E0EC0FFD1FE80FF11D46
:10160000215031092770332781E090E001C0880F15
:101610002A95EAF79081892B808370CF811154C07D
:10162000503244F450E26CCF86E04EC082E04CC0B1
:1016300085E04AC08B81883809F043C033E023E05D
:1016400080E090E06D2D70E0FC01E60FF71FE60DE5
:10165000F71D432F480FA1E0B0E0AC0FBD1FA40F52
:10166000B11D4C9141830196821770F38A858330B6
:1016700021F58B85811121C09E012D5F3F4F41E0F7
:10168000B201C4010E949C0981111EC09B81F2011C
:101690008181981314C09C818281981310C080812D
:1016A00082FF02C0B394BFCEF30183878B2D880FD6
:1016B000B80EB394B08280E007C081E005C087E037
:1016C00003C032E024E0BCCF2D960FB6F894DEBF05
:1016D0000FBECDBFDF91CF911F910F91FF90EF9083
:1016E000DF90CF90BF90AF909F908F907F906F9042
:1016F0005F904F903F902F900895BC01990F880BF9
:10170000990B0E94550860E08FE00E94E10760E0BD
:1017100080E10E94E10760E081E10C94E107CF9352
:10172000DF93CDB7DEB765970FB6F894DEBF0FBE77
:10173000CDBF789484B5826084BD84B5816084BD5A
:1017400085B5826085BD85B5816085BD80916E005F
:10175000816080936E001092810080918100826090
:1017600080938100809181008160809381008091CD
:1017700080008160809380008091B10084608093BC
:10178000B1008091B00081608093B00080917A00B8
:10179000846080937A0080917A00826080937A00DE
:1017A00080917A00816080937A0080917A008068CD
:1017B00080937A001092C1001092050310920603E4
:1017C00010920703109208031092C3021092C402F1
:1017D0001092C5021092C60268EB7BE080E090E0B8
:1017E0000E94D80284E292E0909304038093030362
:1017F0000E94B0020E948F086093C3027093C402DB
:101800008093C5029093C60267E471E08091030360
:10181000909104030E9481016AE070E080E090E012
:101820000E94D80281E08093D70261E08FE00E949D
:10183000150861E080E10E94150861E081E10E94E5
:1018400015080E94B0021FB7F89480911802811108
:1018500027C0E0E9F0E08491ECE7F0E09491E82F14
:10186000F0E0EE0FFF1FE859FF4FA591B491EC9106
:10187000E92321F461E08AE00E94E10761E08AE067
:101880000E9415088CB580618CBD8CB580648CBDC0
:1018900061E08DE00E94150861E08BE00E94150870
:1018A000809118028F5F809318021FBF61E08091C2
:1018B00098030E94150861E0809198030E94E10757
:1018C000809199038F3F09F413C360E00E941508CB
:1018D000809199030E94B507892B09F009C361E043
:1018E000809199030E94150861E0809199030E94FC
:1018F000E10762E370E080E090E00E9455080FC0CD
:10190000115069F062E370E080E090E00E945508B9
:1019100062E08AE893E00E94F00884FDF1CF40E0A5
:1019200064E28AE893E00E940E0940E066E28AE8F9
:1019300093E00E940E0946E268E48AE893E00E9480
:101940000E0940E864E58AE893E00E940E0949EA3E
:1019500066E58AE893E00E940E0943E068E58AE8BC
:1019600093E00E940E0948EE6AE58AE893E00E943F
:101970000E0940E46AE28AE893E00E940E094DE312
:1019800062E28AE893E00E940E0968E28AE893E046
:101990000E94F008982F9370933039F0482F4360DD
:1019A00068E28AE893E00E940E0969E571E084E24A
:1019B00092E00E941A0766E571E084E292E00E94DC
:1019C0006C0184EF882E99249394A12CB12C0E9451
:1019D0008F08672B682B692B41F40E948F086230B7
:1019E00071058105910508F404C10E948F08609378
:1019F000200270932102809322029093230200918F
:101A00001C0210911D0220911E0230911F026017CE
:101A100071078207930740F460931C0270931D02C4
:101A200080931E0290931F0200911C0210911D02D0
:101A300020911E0230911F026B017C01C01AD10A55
:101A4000E20AF30A970186010A3F110521053105D3
:101A500008F4CFC060931C0270931D0280931E0295
:101A600090931F028092CF029092D002A092D10256
:101A7000B092D2021092D3021092D4021092D502E8
:101A80001092D6028091C7029091C802A091C9021B
:101A9000B091CA028093CB029093CC02A093CD0266
:101AA000B093CE020E948F086093C7027093C80261
:101AB0008093C9029093CA020E948F086093C30268
:101AC0007093C4028093C5029093C6020E948F084F
:101AD0006B017C0160E871E0809103039091040345
:101AE0000E9481012AE041E050E060E070E08091D6
:101AF0000303909104030E94D10667E871E080918E
:101B00000303909104030E9481012AE0B701A6011A
:101B100080910303909104030E94D1066CE971E067
:101B200080910303909104030E9481018091C70278
:101B30009091C802A091C902B091CA02B701A60152
:101B4000481B590B6A0B7B0B2AE080910303909191
:101B500004030E94D1066CE971E080910303909127
:101B600004030E9481014091C7025091C802609114
:101B7000C9027091CA028091CB029091CC02A091CF
:101B8000CD02B091CE02481B590B6A0B7B0B2AE0A9
:101B900080910303909104030E94D1066BE871E0E9
:101BA00080910303909104030E9481010E948F0899
:101BB000AB01BC012AE080910303909104030E94D1
:101BC000D1066DE871E080910303909104030E94B7
:101BD0001A0765E070E080E090E00E94D8020E9461
:101BE0008F086093C7027093C8028093C9029093D4
:101BF000CA028AE893E00E943409882309F475C177
:101C00008AE893E00E948607F82E882309F46DC1C4
:101C100064E971E084E292E00E94810168E571E08C
:101C2000CE0140960E947606E12C80918C03E81646
:101C300008F056C00E2D10E006571C4FF8018381A6
:101C4000803118F067EA71E002C064E471E084E278
:101C500092E00E948101F801438150E060E070E071
:101C600020E184E292E00E94D106F8018381803174
:101C700018F067EA71E002C064E471E0CE010196F9
:101C80000E947606BE016F5F7F4FCE0140960E9494
:101C90001F06CE0101960E947106F80183811B8602
:101CA0001A861D861C861F861E8640E1BE016F5F58
:101CB0007F4F90E00E945910BE016F5F7F4FCE01B1
:101CC0000A960E945006BE01665F7F4FCE01409685
:101CD0000E941F06CE010A960E947106E394A5CFCA
:101CE00066E571E084E292E00E946C016EE971E0C9
:101CF00084E292E00E948101088919890115110589
:101D000091F44C895D89BE01605F7F4FCE010196E1
:101D10000E948B0669EA71E0CE0101960E940006DE
:101D2000811126C00DC0F8018081882351F3082E4F
:101D3000000C990B0E94DE12F80181938F01F3CF02
:101D40004C895D89BE01605F7F4FCE010A960E947B
:101D50008B0665EB71E0CE010A960E940006FF2417
:101D6000F394811101C0F12CCE010A960E947106F4
:101D7000CE0101960E947106FF2009F4A6C080E002
:101D800090E00E947D0B61E081E10E94E10784EF19
:101D900091E00E947D0B61EC71E084E292E00E9490
:101DA0001A0768E571E088E793E00E9450064C89C5
:101DB0005D89BE01605F7F4FCE0101960E948B0658
:101DC00069EA71E0CE0101960E940006182FCE014B
:101DD00001960E947106112351F100E010E08091FC
:101DE0008803909189030817190750F40E9465032E
:101DF00080931B0281110E9434030F5F1F4FEFCFAE
:101E000084E893E00E94FF028823E9F110921A020D
:101E10001092190280E090E00E947D0B62ED71E06B
:101E200084E292E00E941A0761E08FE041C04C8991
:101E30005D89BE01605F7F4FCE0101960E948B06D7
:101E400065EB71E0CE0101960E940006182FCE01CD
:101E500001960E947106112369F100E010E0809163
:101E60008203909183030817190750F40E946503B9
:101E700080931B0281110E9434030F5F1F4FEFCF2D
:101E80008EE793E0BFCF8091190290911A020196DC
:101E900090931A028093190280E090E00E947D0BDB
:101EA00064EE71E084E292E00E941A0761E080E152
:101EB0000E94E10766E571E084E292E00E946C0115
:101EC0008CED95E00E947D0B0CC068EF71E084E220
:101ED00092E00E941A076CED75E080E090E00E94AD
:101EE0005508CE0140960E9471060E942E076FCDC4
:101EF0004FE062E08AE893E00E940E0913E002CD11
:101F0000109227021092260288EE93E0A0E0B0E043
:101F10008093280290932902A0932A02B0932B0267
:101F200082E291E0909325028093240285EC90E078
:101F3000909331028093300284EC90E090933302CE
:101F40008093320280EC90E09093350280933402CB
:101F500081EC90E0909337028093360282EC90E01F
:101F6000909339028093380286EC90E090933B0284
:101F700080933A0210923D0210923E0210923F026C
:101F8000109240021092C7021092C8021092C90229
:101F90001092CA021092CB021092CC021092CD0283
:101FA0001092CE021092CF021092D0021092D10263
:101FB0001092D2021092D3021092D4021092D50243
:101FC0001092D6028EE391E090938B0380938A0364
:101FD0008AE08093980389E0809399036DE072E032
:101FE00084E893E00E94760662E172E08EE793E077
:101FF0000E94760668E571E088E793E00E94760625
:1020000010920B0310920F0310920E031092100304
:1020100084E391E090930A038093090380E090E0C9
:10202000FC01E75FFC4F148E10A2178E11A20696DA
:102030008C339105A9F784E091E090936C03809331
:102040006B0380E091E090936E0380936D0384E0D6
:1020500080936F038093700388E091E090936A030C
:10206000809369038AE090E09093720380937103F8
:1020700084EF91E09093740380937303109277033D
:102080001092760310926503109266031092670314
:102090001092680310927503089588E793E00E94F8
:1020A00071068EE793E00E94710684E893E00C9439
:1020B0007106BB27FB015527AA27880F991FAA1F66
:1020C000A41710F0A41B83955051B9F7A05DAA3353
:1020D00008F0A95DA193009779F7B111B19311921E
:1020E000CB010C947310DC01FC01672F71917723F5
:1020F000E1F7329704C07C916D9370836291AE17C3
:10210000BF07C8F30895A1E21A2EAA1BBB1BFD014D
:102110000DC0AA1FBB1FEE1FFF1FA217B307E407C6
:10212000F50720F0A21BB30BE40BF50B661F771F1E
:10213000881F991F1A9469F76095709580959095FE
:102140009B01AC01BD01CF0108952F923F924F92A8
:102150005F926F927F928F929F92AF92BF92CF9237
:10216000DF92EF92FF920F931F93CF93DF93CDB740
:10217000DEB7CA1BDB0B0FB6F894DEBF0FBECDBFB8
:1021800009942A88398848885F846E847D848C8489
:102190009B84AA84B984C884DF80EE80FD800C8192
:1021A0001B81AA81B981CE0FD11D0FB6F894DEBF75
:1021B0000FBECDBFED010895EE0FFF1F0590F49106
:1021C000E02D0994CF93DF938230910510F482E0E3
:1021D00090E0E091A503F091A60320E030E0C0E09C
:1021E000D0E0309711F14081518148175907C0F074
:1021F0004817590761F482819381209719F09B83D6
:102200008A832BC09093A6038093A50326C0211533
:10221000310519F04217530718F49A01BE01DF0186
:10222000EF010280F381E02DDCCF2115310509F1AA
:10223000281B390B2430310590F412968D919C9116
:1022400013976115710521F0FB019383828304C00C
:102250009093A6038093A503FD01329644C0FD012F
:10226000E20FF31F81939193225031092D933C93F8
:102270003AC02091A3033091A403232B41F4209171
:102280001A0130911B013093A4032093A3032091E2
:102290001801309119012115310541F42DB73EB7D0
:1022A00040911C0150911D01241B350BE091A303AB
:1022B000F091A403E217F307A0F42E1B3F0B28179D
:1022C000390778F0AC014E5F5F4F2417350748F0AF
:1022D0004E0F5F1F5093A4034093A30381939193E8
:1022E00002C0E0E0F0E0CF01DF91CF9108950F93BD
:1022F0001F93CF93DF93009709F48CC0FC013297B2
:10230000138212820091A5031091A60301151105F5
:1023100081F420813181820F931F2091A30330919A
:10232000A4032817390779F5F093A403E093A303D6
:1023300071C0D80140E050E0AE17BF0750F41296CC
:102340002D913C911397AD012115310509F1D9016A
:10235000F3CF9D01DA013383228360817181860F7F
:10236000971F8217930769F4EC0128813981260FA2
:10237000371F2E5F3F4F318320838A819B81938358
:102380008283452B29F4F093A603E093A50342C072
:102390001396FC93EE931297ED01499159919E018A
:1023A000240F351FE217F30771F480819181840FA8
:1023B000951F029611969C938E938281938113961A
:1023C0009C938E931297E0E0F0E0D80112968D91E5
:1023D0009C911397009719F0F8018C01F6CF8D911D
:1023E0009C9198012E5F3F4F820F931F2091A30372
:1023F0003091A4032817390769F4309729F4109213
:10240000A6031092A50302C0138212821093A403A4
:102410000093A303DF91CF911F910F910895A0E046
:10242000B0E0E5E1F2E10C94A910EC01009721F491
:10243000CB010E94E210B8C0FC01E60FF71F9C011F
:1024400022503109E217F30708F4ACC0D9010D910D
:102450001C91119706171707B0F00530110508F405
:102460009FC0C80104978617970708F499C00250C7
:102470001109061B170B019311936D937C93CF01E8
:102480000E9477118DC05B01A01AB10A4C01800E29
:10249000911EA091A503B091A60340E050E0E12C6D
:1024A000F12C109709F44AC0A815B905D1F56D9023
:1024B0007C901197630182E0C80ED11CCA14DB0422
:1024C00080F1A3014A195B096A0182E0C80ED11CA0
:1024D0001296BC9012971396AC91B5E0CB16D1042E
:1024E00040F0B282A38351834083D9016D937C93E2
:1024F0000AC00E5F1F4FC301800F911FF901918326
:102500008083EB2DFA2FE114F10431F0D7011396FB
:10251000FC93EE93129744C0F093A603E093A503B7
:102520003FC08D919C9111974817590708F4AC0151
:102530007D0112960D90BC91A02DB3CF8091A30385
:102540009091A40388159905E1F446175707C8F43C
:102550008091180190911901009741F48DB79EB7B1
:1025600040911C0150911D01841B950BE817F90740
:10257000C8F4F093A403E093A303F901718360838B
:102580000FC0CB010E94E2107C01009759F0A80116
:10259000BE010E94E612CE010E947711C70104C05D
:1025A000CE0102C080E090E0CDB7DEB7EEE00C9443
:1025B000C51081E090E0F8940C94FF1291110895F9
:1025C00081568A5108F4805285580895FB01DC0138
:1025D00002C001900D9241505040D8F70895FB0180
:1025E000DC018D91019080190110D9F3990B0895A8
:1025F000FB01DC0101900D920020E1F7089510E04D
:10260000C2E6D0E004C0FE010E94DC102196C33671
:08261000D107C9F7F894FFCFD0
:102618000403020E080706053132334134353642C9
:10262800373839432A3023440000A70380000000CC
:10263800000003018D00BC004A01ED00CB00DF0063
:102648000000000051081108DE0700000000E8093A
:1026580034098607203000564D4450565F317C318E
:102668005F564D4450560D0A00417070726F78697C
:102678006D61746520796F7572206361726420746E
:102688006F20746865207265616465722E2E2E0055
:10269800564D4450455F003A323A007C005F564D33
:1026A8004450450055494420746167203A004D65FF
:1026B8007373616765203A20003936203745204416
:1026C8004220443900363020323020394320413509
:1026D80000456E7465722070617373776F72643A27
:1026E8002000417574686F72697A6564206163635C
:1026F80065737300496E76616C69642070617373E9
:10270800776F72642E2E2E0020596F7572207069B3
:102718006E20697320626C6F636B656400313233BD
:0827280034004142434400006B
:107E0000112484B714BE81FFF0D085E080938100F7
:107E100082E08093C00088E18093C10086E0809377
:107E2000C20080E18093C4008EE0C9D0259A86E02C
:107E300020E33CEF91E0309385002093840096BBD3
:107E4000B09BFECF1D9AA8958150A9F7CC24DD24C4
:107E500088248394B5E0AB2EA1E19A2EF3E0BF2EE7
:107E6000A2D0813461F49FD0082FAFD0023811F036
:107E7000013811F484E001C083E08DD089C08234E0
:107E800011F484E103C0853419F485E0A6D080C0E4
:107E9000853579F488D0E82EFF2485D0082F10E0AE
:107EA000102F00270E291F29000F111F8ED06801E7
:107EB0006FC0863521F484E090D080E0DECF843638
:107EC00009F040C070D06FD0082F6DD080E0C81688
:107ED00080E7D80618F4F601B7BEE895C0E0D1E017
:107EE00062D089930C17E1F7F0E0CF16F0E7DF06D8
:107EF00018F0F601B7BEE89568D007B600FCFDCFD4
:107F0000A601A0E0B1E02C9130E011968C91119780
:107F100090E0982F8827822B932B1296FA010C0160
:107F200087BEE89511244E5F5F4FF1E0A038BF0790
:107F300051F7F601A7BEE89507B600FCFDCF97BE46
:107F4000E89526C08437B1F42ED02DD0F82E2BD052
:107F50003CD0F601EF2C8F010F5F1F4F84911BD097
:107F6000EA94F801C1F70894C11CD11CFA94CF0C13
:107F7000D11C0EC0853739F428D08EE10CD085E9AC
:107F80000AD08FE07ACF813511F488E018D01DD067
:107F900080E101D065CF982F8091C00085FFFCCF94
:107FA0009093C60008958091C00087FFFCCF809118
:107FB000C00084FD01C0A8958091C6000895E0E648
:107FC000F0E098E1908380830895EDDF803219F02E
:107FD00088E0F5DFFFCF84E1DECF1F93182FE3DFCA
:107FE0001150E9F7F2DF1F91089580E0E8DFEE27F6
:047FF000FF270994CA
:027FFE00040479
:0400000300007E007B
:00000001FF